{
  "contractName": "FunParam",
  "abi": [
    {
      "constant": true,
      "inputs": [
        {
          "name": "b",
          "type": "bool"
        }
      ],
      "name": "testBool",
      "outputs": [
        {
          "name": "",
          "type": "bool"
        }
      ],
      "payable": false,
      "stateMutability": "pure",
      "type": "function"
    },
    {
      "constant": true,
      "inputs": [
        {
          "name": "u8",
          "type": "uint8"
        },
        {
          "name": "u256",
          "type": "uint256"
        },
        {
          "name": "i8",
          "type": "int8"
        },
        {
          "name": "i256",
          "type": "int256"
        }
      ],
      "name": "testInt",
      "outputs": [
        {
          "name": "",
          "type": "int256"
        },
        {
          "name": "",
          "type": "int256"
        }
      ],
      "payable": false,
      "stateMutability": "pure",
      "type": "function"
    },
    {
      "constant": true,
      "inputs": [
        {
          "name": "ad",
          "type": "address"
        }
      ],
      "name": "testAddress",
      "outputs": [
        {
          "name": "",
          "type": "int256"
        }
      ],
      "payable": false,
      "stateMutability": "view",
      "type": "function"
    },
    {
      "constant": true,
      "inputs": [
        {
          "name": "b1",
          "type": "bytes1"
        },
        {
          "name": "b32",
          "type": "bytes32"
        },
        {
          "name": "bb",
          "type": "bytes1"
        }
      ],
      "name": "testFixedByte",
      "outputs": [
        {
          "name": "",
          "type": "bytes32"
        }
      ],
      "payable": false,
      "stateMutability": "pure",
      "type": "function"
    },
    {
      "constant": true,
      "inputs": [
        {
          "name": "b",
          "type": "bytes"
        },
        {
          "name": "s",
          "type": "string"
        }
      ],
      "name": "testUFixedByte",
      "outputs": [
        {
          "name": "",
          "type": "bytes"
        },
        {
          "name": "",
          "type": "string"
        }
      ],
      "payable": false,
      "stateMutability": "pure",
      "type": "function"
    },
    {
      "constant": true,
      "inputs": [
        {
          "name": "ia",
          "type": "int256[10]"
        },
        {
          "name": "uia",
          "type": "uint256[10]"
        }
      ],
      "name": "testIntArray",
      "outputs": [
        {
          "name": "",
          "type": "int256"
        }
      ],
      "payable": false,
      "stateMutability": "pure",
      "type": "function"
    }
  ],
  "bytecode": "0x608060405234801561001057600080fd5b506105df806100206000396000f300608060405260043610610078576000357c0100000000000000000000000000000000000000000000000000000000900463ffffffff1680631a5b3a021461007d578063369ad6ed1461021157806342f457901461027d57806372885d78146102d4578063c93a20761461036b578063e8dde23214610410575b600080fd5b34801561008957600080fd5b5061012a600480360381019080803590602001908201803590602001908080601f0160208091040260200160405190810160405280939291908181526020018383808284378201915050505050509192919290803590602001908201803590602001908080601f0160208091040260200160405190810160405280939291908181526020018383808284378201915050505050509192919290505050610457565b604051808060200180602001838103835285818151815260200191508051906020019080838360005b8381101561016e578082015181840152602081019050610153565b50505050905090810190601f16801561019b5780820380516001836020036101000a031916815260200191505b50838103825284818151815260200191508051906020019080838360005b838110156101d45780820151818401526020810190506101b9565b50505050905090810190601f1680156102015780820380516001836020036101000a031916815260200191505b5094505050505060405180910390f35b34801561021d57600080fd5b50610260600480360381019080803560ff16906020019092919080359060200190929190803560000b906020019092919080359060200190929190505050610472565b604051808381526020018281526020019250505060405180910390f35b34801561028957600080fd5b506102be600480360381019080803573ffffffffffffffffffffffffffffffffffffffff1690602001909291905050506104db565b6040518082815260200191505060405180910390f35b3480156102e057600080fd5b50610355600480360381019080806101400190600a806020026040519081016040528092919082600a6020028082843782019150505050509192919290806101400190600a806020026040519081016040528092919082600a602002808284378201915050505050919291929050505061050f565b6040518082815260200191505060405180910390f35b34801561037757600080fd5b506103f260048036038101908080357effffffffffffffffffffffffffffffffffffffffffffffffffffffffffffff19169060200190929190803560001916906020019092919080357effffffffffffffffffffffffffffffffffffffffffffffffffffffffffffff19169060200190929190505050610544565b60405180826000191660001916815260200191505060405180910390f35b34801561041c57600080fd5b5061043d600480360381019080803515159060200190929190505050610598565b604051808215151515815260200191505060405180910390f35b60608060608085915084905081819350935050509250929050565b6000806000809050600a8760ff16111561048f5780806001019150505b600a8611156104a15780806001019150505b600a8560000b13156104b65780806001019150505b600a8413156104c85780806001019150505b8060028202925092505094509492505050565b6000808273ffffffffffffffffffffffffffffffffffffffff16311415610505576000905061050a565b600190505b919050565b60008060009050600a8010156105285780806001019150505b600a80101561053a5780806001019150505b8091505092915050565b600080600090506000600160ff1614156105615780806001019150505b6000602060ff1614156105775780806001019150505b6000600160ff16141561058d5780806001019150505b839150509392505050565b600081156105a957600190506105ae565b600090505b9190505600a165627a7a723058204316ecd15201c48b61702db71428939925b05a47d6b8b6a9663322cbc99d39f60029",
  "source": "pragma solidity ^0.4.23;\n\ncontract FunParam{\n\n    function testBool(bool b) public pure returns(bool){\n        if(b){\n            return true;\n        }else{\n            return false;\n        }\n    }\n\n    function testInt(uint8 u8,uint256 u256,int8 i8,int256 i256) public pure returns(int,int){\n        int sum = 0;\n        if(u8 > 10){\n            sum++;\n        }\n        if(u256 > 10){\n            sum++;\n        }\n        if(i8 > 10){\n            sum++;\n        }\n        if(i256 > 10){\n            sum++;\n        }\n        return (sum,sum*2);\n    }\n\n    function testAddress(address ad) public view returns(int){\n        if(ad.balance == 0){\n            return 0;\n        }else{\n            return 1;\n        }\n    }\n\n    function testFixedByte(bytes1 b1,bytes32 b32,byte bb) public pure returns(bytes32){\n        int sum = 0;\n        if(b1.length == 0){\n            sum++;\n        }\n        if(b32.length == 0){\n            sum++;\n        }\n        if(bb.length == 0){\n            sum++;\n        }\n        return b32;\n    }\n\n    function testUFixedByte(bytes memory b,string memory s) public pure returns(bytes memory,string memory){\n        bytes memory bb = b;\n        string memory ss = s;\n        return (bb,ss);\n    }\n\n    function testIntArray(int[10] memory ia,uint[10] memory uia) public pure returns(int){\n        int sum = 0;\n        if(ia.length < 10){\n            sum++;\n        }\n        if(uia.length < 10){\n            sum++;\n        }\n        return sum;\n    }\n}",
  "sourcePath": "/home/xcrab/MyWorkspace/genrating_contract_test_exmple/ethTruffle/contracts/FunParam.sol",
  "compiler": {
    "name": "solc",
    "version": "0.4.24+commit.e67f0147.Emscripten.clang"
  },
  "schemaVersion": "2.0.1",
  "updatedAt": "2019-01-05T07:15:19.110Z"
}